{
  "address": "0x3a8de1E232d9674626A49e0127DFD8cc3aD9cb68",
  "abi": [
    {
      "inputs": [
        {
          "internalType": "string",
          "name": "baseUri",
          "type": "string"
        },
        {
          "internalType": "address",
          "name": "admin",
          "type": "address"
        },
        {
          "internalType": "uint256",
          "name": "initialGiftCount",
          "type": "uint256"
        },
        {
          "internalType": "uint256[]",
          "name": "initialPrices",
          "type": "uint256[]"
        }
      ],
      "stateMutability": "nonpayable",
      "type": "constructor"
    },
    {
      "inputs": [],
      "name": "AccessControlBadConfirmation",
      "type": "error"
    },
    {
      "inputs": [
        {
          "internalType": "address",
          "name": "account",
          "type": "address"
        },
        {
          "internalType": "bytes32",
          "name": "neededRole",
          "type": "bytes32"
        }
      ],
      "name": "AccessControlUnauthorizedAccount",
      "type": "error"
    },
    {
      "inputs": [
        {
          "internalType": "address",
          "name": "sender",
          "type": "address"
        },
        {
          "internalType": "uint256",
          "name": "balance",
          "type": "uint256"
        },
        {
          "internalType": "uint256",
          "name": "needed",
          "type": "uint256"
        },
        {
          "internalType": "uint256",
          "name": "tokenId",
          "type": "uint256"
        }
      ],
      "name": "ERC1155InsufficientBalance",
      "type": "error"
    },
    {
      "inputs": [
        {
          "internalType": "address",
          "name": "approver",
          "type": "address"
        }
      ],
      "name": "ERC1155InvalidApprover",
      "type": "error"
    },
    {
      "inputs": [
        {
          "internalType": "uint256",
          "name": "idsLength",
          "type": "uint256"
        },
        {
          "internalType": "uint256",
          "name": "valuesLength",
          "type": "uint256"
        }
      ],
      "name": "ERC1155InvalidArrayLength",
      "type": "error"
    },
    {
      "inputs": [
        {
          "internalType": "address",
          "name": "operator",
          "type": "address"
        }
      ],
      "name": "ERC1155InvalidOperator",
      "type": "error"
    },
    {
      "inputs": [
        {
          "internalType": "address",
          "name": "receiver",
          "type": "address"
        }
      ],
      "name": "ERC1155InvalidReceiver",
      "type": "error"
    },
    {
      "inputs": [
        {
          "internalType": "address",
          "name": "sender",
          "type": "address"
        }
      ],
      "name": "ERC1155InvalidSender",
      "type": "error"
    },
    {
      "inputs": [
        {
          "internalType": "address",
          "name": "operator",
          "type": "address"
        },
        {
          "internalType": "address",
          "name": "owner",
          "type": "address"
        }
      ],
      "name": "ERC1155MissingApprovalForAll",
      "type": "error"
    },
    {
      "inputs": [],
      "name": "EnforcedPause",
      "type": "error"
    },
    {
      "inputs": [],
      "name": "ExpectedPause",
      "type": "error"
    },
    {
      "inputs": [],
      "name": "ReentrancyGuardReentrantCall",
      "type": "error"
    },
    {
      "anonymous": false,
      "inputs": [
        {
          "indexed": true,
          "internalType": "address",
          "name": "account",
          "type": "address"
        },
        {
          "indexed": true,
          "internalType": "address",
          "name": "operator",
          "type": "address"
        },
        {
          "indexed": false,
          "internalType": "bool",
          "name": "approved",
          "type": "bool"
        }
      ],
      "name": "ApprovalForAll",
      "type": "event"
    },
    {
      "anonymous": false,
      "inputs": [
        {
          "indexed": true,
          "internalType": "address",
          "name": "from",
          "type": "address"
        },
        {
          "indexed": true,
          "internalType": "address",
          "name": "to",
          "type": "address"
        },
        {
          "indexed": true,
          "internalType": "uint256",
          "name": "giftId",
          "type": "uint256"
        },
        {
          "indexed": false,
          "internalType": "uint256",
          "name": "amount",
          "type": "uint256"
        }
      ],
      "name": "CreditsTransferred",
      "type": "event"
    },
    {
      "anonymous": false,
      "inputs": [
        {
          "indexed": true,
          "internalType": "uint256",
          "name": "giftId",
          "type": "uint256"
        },
        {
          "indexed": false,
          "internalType": "uint256",
          "name": "priceNative",
          "type": "uint256"
        },
        {
          "indexed": false,
          "internalType": "bool",
          "name": "enabled",
          "type": "bool"
        }
      ],
      "name": "GiftConfigUpdated",
      "type": "event"
    },
    {
      "anonymous": false,
      "inputs": [
        {
          "indexed": true,
          "internalType": "address",
          "name": "buyer",
          "type": "address"
        },
        {
          "indexed": true,
          "internalType": "uint256",
          "name": "giftId",
          "type": "uint256"
        },
        {
          "indexed": false,
          "internalType": "uint256",
          "name": "amount",
          "type": "uint256"
        },
        {
          "indexed": false,
          "internalType": "uint256",
          "name": "payAmount",
          "type": "uint256"
        }
      ],
      "name": "GiftPurchased",
      "type": "event"
    },
    {
      "anonymous": false,
      "inputs": [
        {
          "indexed": false,
          "internalType": "address",
          "name": "account",
          "type": "address"
        }
      ],
      "name": "Paused",
      "type": "event"
    },
    {
      "anonymous": false,
      "inputs": [
        {
          "indexed": true,
          "internalType": "address",
          "name": "user",
          "type": "address"
        },
        {
          "indexed": true,
          "internalType": "uint256",
          "name": "giftId",
          "type": "uint256"
        },
        {
          "indexed": false,
          "internalType": "uint256",
          "name": "amount",
          "type": "uint256"
        }
      ],
      "name": "RedeemedToCredit",
      "type": "event"
    },
    {
      "anonymous": false,
      "inputs": [
        {
          "indexed": true,
          "internalType": "address",
          "name": "user",
          "type": "address"
        },
        {
          "indexed": true,
          "internalType": "address",
          "name": "to",
          "type": "address"
        },
        {
          "indexed": true,
          "internalType": "uint256",
          "name": "giftId",
          "type": "uint256"
        },
        {
          "indexed": false,
          "internalType": "uint256",
          "name": "amount",
          "type": "uint256"
        }
      ],
      "name": "RedeemedToToken",
      "type": "event"
    },
    {
      "anonymous": false,
      "inputs": [
        {
          "indexed": true,
          "internalType": "bytes32",
          "name": "role",
          "type": "bytes32"
        },
        {
          "indexed": true,
          "internalType": "bytes32",
          "name": "previousAdminRole",
          "type": "bytes32"
        },
        {
          "indexed": true,
          "internalType": "bytes32",
          "name": "newAdminRole",
          "type": "bytes32"
        }
      ],
      "name": "RoleAdminChanged",
      "type": "event"
    },
    {
      "anonymous": false,
      "inputs": [
        {
          "indexed": true,
          "internalType": "bytes32",
          "name": "role",
          "type": "bytes32"
        },
        {
          "indexed": true,
          "internalType": "address",
          "name": "account",
          "type": "address"
        },
        {
          "indexed": true,
          "internalType": "address",
          "name": "sender",
          "type": "address"
        }
      ],
      "name": "RoleGranted",
      "type": "event"
    },
    {
      "anonymous": false,
      "inputs": [
        {
          "indexed": true,
          "internalType": "bytes32",
          "name": "role",
          "type": "bytes32"
        },
        {
          "indexed": true,
          "internalType": "address",
          "name": "account",
          "type": "address"
        },
        {
          "indexed": true,
          "internalType": "address",
          "name": "sender",
          "type": "address"
        }
      ],
      "name": "RoleRevoked",
      "type": "event"
    },
    {
      "anonymous": false,
      "inputs": [
        {
          "indexed": true,
          "internalType": "address",
          "name": "streamer",
          "type": "address"
        },
        {
          "indexed": true,
          "internalType": "address",
          "name": "from",
          "type": "address"
        },
        {
          "indexed": true,
          "internalType": "uint256",
          "name": "giftId",
          "type": "uint256"
        },
        {
          "indexed": false,
          "internalType": "uint256",
          "name": "amount",
          "type": "uint256"
        },
        {
          "indexed": false,
          "internalType": "uint256",
          "name": "clientNonce",
          "type": "uint256"
        }
      ],
      "name": "Tipped",
      "type": "event"
    },
    {
      "anonymous": false,
      "inputs": [
        {
          "indexed": true,
          "internalType": "address",
          "name": "operator",
          "type": "address"
        },
        {
          "indexed": true,
          "internalType": "address",
          "name": "from",
          "type": "address"
        },
        {
          "indexed": true,
          "internalType": "address",
          "name": "to",
          "type": "address"
        },
        {
          "indexed": false,
          "internalType": "uint256[]",
          "name": "ids",
          "type": "uint256[]"
        },
        {
          "indexed": false,
          "internalType": "uint256[]",
          "name": "values",
          "type": "uint256[]"
        }
      ],
      "name": "TransferBatch",
      "type": "event"
    },
    {
      "anonymous": false,
      "inputs": [
        {
          "indexed": true,
          "internalType": "address",
          "name": "operator",
          "type": "address"
        },
        {
          "indexed": true,
          "internalType": "address",
          "name": "from",
          "type": "address"
        },
        {
          "indexed": true,
          "internalType": "address",
          "name": "to",
          "type": "address"
        },
        {
          "indexed": false,
          "internalType": "uint256",
          "name": "id",
          "type": "uint256"
        },
        {
          "indexed": false,
          "internalType": "uint256",
          "name": "value",
          "type": "uint256"
        }
      ],
      "name": "TransferSingle",
      "type": "event"
    },
    {
      "anonymous": false,
      "inputs": [
        {
          "indexed": true,
          "internalType": "address",
          "name": "to",
          "type": "address"
        },
        {
          "indexed": false,
          "internalType": "uint256",
          "name": "amount",
          "type": "uint256"
        }
      ],
      "name": "TreasuryTransferred",
      "type": "event"
    },
    {
      "anonymous": false,
      "inputs": [
        {
          "indexed": true,
          "internalType": "address",
          "name": "treasury",
          "type": "address"
        }
      ],
      "name": "TreasuryUpdated",
      "type": "event"
    },
    {
      "anonymous": false,
      "inputs": [
        {
          "indexed": false,
          "internalType": "string",
          "name": "value",
          "type": "string"
        },
        {
          "indexed": true,
          "internalType": "uint256",
          "name": "id",
          "type": "uint256"
        }
      ],
      "name": "URI",
      "type": "event"
    },
    {
      "anonymous": false,
      "inputs": [
        {
          "indexed": false,
          "internalType": "address",
          "name": "account",
          "type": "address"
        }
      ],
      "name": "Unpaused",
      "type": "event"
    },
    {
      "anonymous": false,
      "inputs": [
        {
          "indexed": true,
          "internalType": "address",
          "name": "streamer",
          "type": "address"
        },
        {
          "indexed": true,
          "internalType": "address",
          "name": "to",
          "type": "address"
        },
        {
          "indexed": true,
          "internalType": "uint256",
          "name": "giftId",
          "type": "uint256"
        },
        {
          "indexed": false,
          "internalType": "uint256",
          "name": "amount",
          "type": "uint256"
        },
        {
          "indexed": false,
          "internalType": "uint256",
          "name": "payAmount",
          "type": "uint256"
        }
      ],
      "name": "Withdrawn",
      "type": "event"
    },
    {
      "inputs": [],
      "name": "DEFAULT_ADMIN_ROLE",
      "outputs": [
        {
          "internalType": "bytes32",
          "name": "",
          "type": "bytes32"
        }
      ],
      "stateMutability": "view",
      "type": "function"
    },
    {
      "inputs": [],
      "name": "PAUSER_ROLE",
      "outputs": [
        {
          "internalType": "bytes32",
          "name": "",
          "type": "bytes32"
        }
      ],
      "stateMutability": "view",
      "type": "function"
    },
    {
      "inputs": [],
      "name": "STREAMER_ROLE",
      "outputs": [
        {
          "internalType": "bytes32",
          "name": "",
          "type": "bytes32"
        }
      ],
      "stateMutability": "view",
      "type": "function"
    },
    {
      "inputs": [],
      "name": "TREASURY_ROLE",
      "outputs": [
        {
          "internalType": "bytes32",
          "name": "",
          "type": "bytes32"
        }
      ],
      "stateMutability": "view",
      "type": "function"
    },
    {
      "inputs": [
        {
          "internalType": "address",
          "name": "streamer",
          "type": "address"
        }
      ],
      "name": "addStreamer",
      "outputs": [],
      "stateMutability": "nonpayable",
      "type": "function"
    },
    {
      "inputs": [
        {
          "internalType": "address",
          "name": "account",
          "type": "address"
        },
        {
          "internalType": "uint256",
          "name": "id",
          "type": "uint256"
        }
      ],
      "name": "balanceOf",
      "outputs": [
        {
          "internalType": "uint256",
          "name": "",
          "type": "uint256"
        }
      ],
      "stateMutability": "view",
      "type": "function"
    },
    {
      "inputs": [
        {
          "internalType": "address[]",
          "name": "accounts",
          "type": "address[]"
        },
        {
          "internalType": "uint256[]",
          "name": "ids",
          "type": "uint256[]"
        }
      ],
      "name": "balanceOfBatch",
      "outputs": [
        {
          "internalType": "uint256[]",
          "name": "",
          "type": "uint256[]"
        }
      ],
      "stateMutability": "view",
      "type": "function"
    },
    {
      "inputs": [
        {
          "internalType": "uint256",
          "name": "giftId",
          "type": "uint256"
        },
        {
          "internalType": "uint256",
          "name": "amount",
          "type": "uint256"
        }
      ],
      "name": "buyWithNative",
      "outputs": [],
      "stateMutability": "payable",
      "type": "function"
    },
    {
      "inputs": [
        {
          "internalType": "address",
          "name": "",
          "type": "address"
        },
        {
          "internalType": "uint256",
          "name": "",
          "type": "uint256"
        }
      ],
      "name": "credits",
      "outputs": [
        {
          "internalType": "uint256",
          "name": "",
          "type": "uint256"
        }
      ],
      "stateMutability": "view",
      "type": "function"
    },
    {
      "inputs": [
        {
          "internalType": "address",
          "name": "user",
          "type": "address"
        },
        {
          "internalType": "uint256",
          "name": "giftId",
          "type": "uint256"
        }
      ],
      "name": "creditsOf",
      "outputs": [
        {
          "internalType": "uint256",
          "name": "",
          "type": "uint256"
        }
      ],
      "stateMutability": "view",
      "type": "function"
    },
    {
      "inputs": [
        {
          "internalType": "address",
          "name": "",
          "type": "address"
        },
        {
          "internalType": "uint256",
          "name": "",
          "type": "uint256"
        }
      ],
      "name": "earnings",
      "outputs": [
        {
          "internalType": "uint256",
          "name": "",
          "type": "uint256"
        }
      ],
      "stateMutability": "view",
      "type": "function"
    },
    {
      "inputs": [
        {
          "internalType": "address",
          "name": "streamer",
          "type": "address"
        },
        {
          "internalType": "uint256",
          "name": "giftId",
          "type": "uint256"
        }
      ],
      "name": "earningsOf",
      "outputs": [
        {
          "internalType": "uint256",
          "name": "",
          "type": "uint256"
        }
      ],
      "stateMutability": "view",
      "type": "function"
    },
    {
      "inputs": [
        {
          "internalType": "uint256",
          "name": "id",
          "type": "uint256"
        }
      ],
      "name": "exists",
      "outputs": [
        {
          "internalType": "bool",
          "name": "",
          "type": "bool"
        }
      ],
      "stateMutability": "view",
      "type": "function"
    },
    {
      "inputs": [
        {
          "internalType": "bytes32",
          "name": "role",
          "type": "bytes32"
        }
      ],
      "name": "getRoleAdmin",
      "outputs": [
        {
          "internalType": "bytes32",
          "name": "",
          "type": "bytes32"
        }
      ],
      "stateMutability": "view",
      "type": "function"
    },
    {
      "inputs": [
        {
          "internalType": "uint256",
          "name": "",
          "type": "uint256"
        }
      ],
      "name": "giftConfig",
      "outputs": [
        {
          "internalType": "uint256",
          "name": "priceNative",
          "type": "uint256"
        },
        {
          "internalType": "bool",
          "name": "enabled",
          "type": "bool"
        }
      ],
      "stateMutability": "view",
      "type": "function"
    },
    {
      "inputs": [],
      "name": "giftCount",
      "outputs": [
        {
          "internalType": "uint256",
          "name": "",
          "type": "uint256"
        }
      ],
      "stateMutability": "view",
      "type": "function"
    },
    {
      "inputs": [
        {
          "internalType": "bytes32",
          "name": "role",
          "type": "bytes32"
        },
        {
          "internalType": "address",
          "name": "account",
          "type": "address"
        }
      ],
      "name": "grantRole",
      "outputs": [],
      "stateMutability": "nonpayable",
      "type": "function"
    },
    {
      "inputs": [
        {
          "internalType": "bytes32",
          "name": "role",
          "type": "bytes32"
        },
        {
          "internalType": "address",
          "name": "account",
          "type": "address"
        }
      ],
      "name": "hasRole",
      "outputs": [
        {
          "internalType": "bool",
          "name": "",
          "type": "bool"
        }
      ],
      "stateMutability": "view",
      "type": "function"
    },
    {
      "inputs": [
        {
          "internalType": "address",
          "name": "account",
          "type": "address"
        },
        {
          "internalType": "address",
          "name": "operator",
          "type": "address"
        }
      ],
      "name": "isApprovedForAll",
      "outputs": [
        {
          "internalType": "bool",
          "name": "",
          "type": "bool"
        }
      ],
      "stateMutability": "view",
      "type": "function"
    },
    {
      "inputs": [],
      "name": "pause",
      "outputs": [],
      "stateMutability": "nonpayable",
      "type": "function"
    },
    {
      "inputs": [],
      "name": "paused",
      "outputs": [
        {
          "internalType": "bool",
          "name": "",
          "type": "bool"
        }
      ],
      "stateMutability": "view",
      "type": "function"
    },
    {
      "inputs": [
        {
          "internalType": "uint256",
          "name": "giftId",
          "type": "uint256"
        },
        {
          "internalType": "uint256",
          "name": "amount",
          "type": "uint256"
        }
      ],
      "name": "redeemToCredit",
      "outputs": [],
      "stateMutability": "nonpayable",
      "type": "function"
    },
    {
      "inputs": [
        {
          "internalType": "uint256",
          "name": "giftId",
          "type": "uint256"
        },
        {
          "internalType": "uint256",
          "name": "amount",
          "type": "uint256"
        },
        {
          "internalType": "address",
          "name": "to",
          "type": "address"
        }
      ],
      "name": "redeemToToken",
      "outputs": [],
      "stateMutability": "nonpayable",
      "type": "function"
    },
    {
      "inputs": [
        {
          "internalType": "address",
          "name": "streamer",
          "type": "address"
        }
      ],
      "name": "removeStreamer",
      "outputs": [],
      "stateMutability": "nonpayable",
      "type": "function"
    },
    {
      "inputs": [
        {
          "internalType": "bytes32",
          "name": "role",
          "type": "bytes32"
        },
        {
          "internalType": "address",
          "name": "callerConfirmation",
          "type": "address"
        }
      ],
      "name": "renounceRole",
      "outputs": [],
      "stateMutability": "nonpayable",
      "type": "function"
    },
    {
      "inputs": [
        {
          "internalType": "bytes32",
          "name": "role",
          "type": "bytes32"
        },
        {
          "internalType": "address",
          "name": "account",
          "type": "address"
        }
      ],
      "name": "revokeRole",
      "outputs": [],
      "stateMutability": "nonpayable",
      "type": "function"
    },
    {
      "inputs": [
        {
          "internalType": "address",
          "name": "from",
          "type": "address"
        },
        {
          "internalType": "address",
          "name": "to",
          "type": "address"
        },
        {
          "internalType": "uint256[]",
          "name": "ids",
          "type": "uint256[]"
        },
        {
          "internalType": "uint256[]",
          "name": "values",
          "type": "uint256[]"
        },
        {
          "internalType": "bytes",
          "name": "data",
          "type": "bytes"
        }
      ],
      "name": "safeBatchTransferFrom",
      "outputs": [],
      "stateMutability": "nonpayable",
      "type": "function"
    },
    {
      "inputs": [
        {
          "internalType": "address",
          "name": "from",
          "type": "address"
        },
        {
          "internalType": "address",
          "name": "to",
          "type": "address"
        },
        {
          "internalType": "uint256",
          "name": "id",
          "type": "uint256"
        },
        {
          "internalType": "uint256",
          "name": "value",
          "type": "uint256"
        },
        {
          "internalType": "bytes",
          "name": "data",
          "type": "bytes"
        }
      ],
      "name": "safeTransferFrom",
      "outputs": [],
      "stateMutability": "nonpayable",
      "type": "function"
    },
    {
      "inputs": [
        {
          "internalType": "address",
          "name": "operator",
          "type": "address"
        },
        {
          "internalType": "bool",
          "name": "approved",
          "type": "bool"
        }
      ],
      "name": "setApprovalForAll",
      "outputs": [],
      "stateMutability": "nonpayable",
      "type": "function"
    },
    {
      "inputs": [
        {
          "internalType": "uint256",
          "name": "giftId",
          "type": "uint256"
        },
        {
          "internalType": "uint256",
          "name": "priceNative",
          "type": "uint256"
        },
        {
          "internalType": "bool",
          "name": "enabled",
          "type": "bool"
        }
      ],
      "name": "setGiftConfig",
      "outputs": [],
      "stateMutability": "nonpayable",
      "type": "function"
    },
    {
      "inputs": [
        {
          "internalType": "bytes4",
          "name": "interfaceId",
          "type": "bytes4"
        }
      ],
      "name": "supportsInterface",
      "outputs": [
        {
          "internalType": "bool",
          "name": "",
          "type": "bool"
        }
      ],
      "stateMutability": "view",
      "type": "function"
    },
    {
      "inputs": [
        {
          "internalType": "address",
          "name": "streamer",
          "type": "address"
        },
        {
          "internalType": "uint256",
          "name": "giftId",
          "type": "uint256"
        },
        {
          "internalType": "uint256",
          "name": "amount",
          "type": "uint256"
        },
        {
          "internalType": "uint256",
          "name": "clientNonce",
          "type": "uint256"
        }
      ],
      "name": "tip",
      "outputs": [],
      "stateMutability": "nonpayable",
      "type": "function"
    },
    {
      "inputs": [],
      "name": "totalSupply",
      "outputs": [
        {
          "internalType": "uint256",
          "name": "",
          "type": "uint256"
        }
      ],
      "stateMutability": "view",
      "type": "function"
    },
    {
      "inputs": [
        {
          "internalType": "uint256",
          "name": "id",
          "type": "uint256"
        }
      ],
      "name": "totalSupply",
      "outputs": [
        {
          "internalType": "uint256",
          "name": "",
          "type": "uint256"
        }
      ],
      "stateMutability": "view",
      "type": "function"
    },
    {
      "inputs": [
        {
          "internalType": "address",
          "name": "to",
          "type": "address"
        },
        {
          "internalType": "uint256",
          "name": "giftId",
          "type": "uint256"
        },
        {
          "internalType": "uint256",
          "name": "amount",
          "type": "uint256"
        }
      ],
      "name": "transferCredits",
      "outputs": [],
      "stateMutability": "nonpayable",
      "type": "function"
    },
    {
      "inputs": [
        {
          "internalType": "address",
          "name": "to",
          "type": "address"
        },
        {
          "internalType": "uint256",
          "name": "amount",
          "type": "uint256"
        }
      ],
      "name": "transferTreasury",
      "outputs": [],
      "stateMutability": "nonpayable",
      "type": "function"
    },
    {
      "inputs": [],
      "name": "treasury",
      "outputs": [
        {
          "internalType": "address",
          "name": "",
          "type": "address"
        }
      ],
      "stateMutability": "view",
      "type": "function"
    },
    {
      "inputs": [],
      "name": "unpause",
      "outputs": [],
      "stateMutability": "nonpayable",
      "type": "function"
    },
    {
      "inputs": [
        {
          "internalType": "uint256",
          "name": "",
          "type": "uint256"
        }
      ],
      "name": "uri",
      "outputs": [
        {
          "internalType": "string",
          "name": "",
          "type": "string"
        }
      ],
      "stateMutability": "view",
      "type": "function"
    },
    {
      "inputs": [
        {
          "internalType": "address",
          "name": "streamer",
          "type": "address"
        },
        {
          "internalType": "uint256",
          "name": "giftId",
          "type": "uint256"
        },
        {
          "internalType": "uint256",
          "name": "amount",
          "type": "uint256"
        },
        {
          "internalType": "address",
          "name": "to",
          "type": "address"
        }
      ],
      "name": "withdrawNative",
      "outputs": [],
      "stateMutability": "payable",
      "type": "function"
    }
  ],
  "transactionHash": "0x17bbb9e13eff4ea6acb4b0fb897c5495e3a53c446ff5222505c6f92319efd29c",
  "args": [
    "ipfs://gifts/{id}.json",
    "0x435a345bB8eC10b30738217332216849506aCCcF",
    3,
    [
      "100000000000000",
      "1000000000000000",
      "5000000000000000"
    ]
  ],
  "numDeployments": 1,
  "solcInputHash": "9e69f65ea52cb20f607d89a5cacead47",
  "bytecode": "0x60806040523480156200001157600080fd5b50604051620034ce380380620034ce83398101604081905262000034916200049c565b8362000040816200021c565b506006805460ff1916905560016007556001600160a01b0383166200009c5760405162461bcd60e51b815260206004820152600d60248201526c34b73b30b634b21030b236b4b760991b60448201526064015b60405180910390fd5b60008211620000e35760405162461bcd60e51b81526020600482015260126024820152711a5b9d985b1a590819da599d0818dbdd5b9d60721b604482015260640162000093565b81815114620001355760405162461bcd60e51b815260206004820152601560248201527f7072696365206c656e677468206d69736d617463680000000000000000000000604482015260640162000093565b620001426000846200022e565b506200016f7f65d7a28e3265b37a6474929f336521b332c1681b933f6cb9f3376673440d862a846200022e565b506200019c7fe1dcbdb91df27212a29bc27177c840cf2f819ecf2187432e1fac86c2dd5dfca9846200022e565b50600980546001600160a01b03191630179055600882905560005b828110156200021157620001fc620001d1826001620005a9565b838381518110620001e657620001e6620005bf565b60200260200101516001620002e160201b60201c565b806200020881620005d5565b915050620001b7565b50505050506200074c565b60026200022a828262000680565b5050565b60008281526005602090815260408083206001600160a01b038516845290915281205460ff16620002d75760008381526005602090815260408083206001600160a01b03861684529091529020805460ff191660011790556200028e3390565b6001600160a01b0316826001600160a01b0316847f2f8788117e7eff1d82e926ec794901d17c78024a50270940304540a733656f0d60405160405180910390a4506001620002db565b5060005b92915050565b60018310158015620002f557506008548311155b620003365760405162461bcd60e51b815260206004820152601060248201526f1d5b9cdd5c1c1bdc9d19590819da599d60821b604482015260640162000093565b60408051808201825283815282151560208083018281526000888152600c835285902093518455516001909301805460ff19169315159390931790925582518581529182015284917f6f203b90fe004c1846d827a25235b6142ea96fdd5e773c5b507b419cf00dbfba910160405180910390a2505050565b634e487b7160e01b600052604160045260246000fd5b604051601f8201601f191681016001600160401b0381118282101715620003ef57620003ef620003ae565b604052919050565b80516001600160a01b03811681146200040f57600080fd5b919050565b600082601f8301126200042657600080fd5b815160206001600160401b03821115620004445762000444620003ae565b8160051b62000455828201620003c4565b92835284810182019282810190878511156200047057600080fd5b83870192505b84831015620004915782518252918301919083019062000476565b979650505050505050565b60008060008060808587031215620004b357600080fd5b84516001600160401b0380821115620004cb57600080fd5b818701915087601f830112620004e057600080fd5b815181811115620004f557620004f5620003ae565b60206200050b601f8301601f19168201620003c4565b8281528a828487010111156200052057600080fd5b60005b838110156200054057858101830151828201840152820162000523565b506000818401830152975062000558898201620003f7565b965050506040870151935060608701519150808211156200057857600080fd5b50620005878782880162000414565b91505092959194509250565b634e487b7160e01b600052601160045260246000fd5b80820180821115620002db57620002db62000593565b634e487b7160e01b600052603260045260246000fd5b600060018201620005ea57620005ea62000593565b5060010190565b600181811c908216806200060657607f821691505b6020821081036200062757634e487b7160e01b600052602260045260246000fd5b50919050565b601f8211156200067b57600081815260208120601f850160051c81016020861015620006565750805b601f850160051c820191505b81811015620006775782815560010162000662565b5050505b505050565b81516001600160401b038111156200069c576200069c620003ae565b620006b481620006ad8454620005f1565b846200062d565b602080601f831160018114620006ec5760008415620006d35750858301515b600019600386901b1c1916600185901b17855562000677565b600085815260208120601f198616915b828110156200071d57888601518255948401946001909101908401620006fc565b50858210156200073c5787850151600019600388901b60f8161c191681555b5050505050600190811b01905550565b612d72806200075c6000396000f3fe60806040526004361061023a5760003560e01c8063889901531161012e578063d11a57ec116100ab578063ed7003741161006f578063ed70037414610772578063edafbaaa14610788578063ef5f5ea31461079b578063f242432a146107de578063ff76a861146107fe57600080fd5b8063d11a57ec14610692578063d547741f146106c6578063e4dd6272146106e6578063e63ab1e91461071e578063e985e9c51461075257600080fd5b8063a2f6045a116100f2578063a2f6045a146105b7578063b81f7007146105d7578063bd85b039146105f7578063c5e26a3314610624578063c9d6da0e1461067057600080fd5b80638899015314610522578063900584311461054257806391d1485414610562578063a217fddf14610582578063a22cb4651461059757600080fd5b80634e1273f4116101bc57806361d027b31161018057806361d027b31461045f5780636ac4b19e1461049757806373d30daa146104aa5780638456cb59146104ed57806387ad029e1461050257600080fd5b80634e1273f4146103ab5780634f558e79146103d85780635389bfe51461040757806356d5e51a146104275780635c975abb1461044757600080fd5b8063248a9ca311610203578063248a9ca3146103065780632eb2c2d6146103365780632f2ff15d1461035657806336568abe146103765780633f4ba83a1461039657600080fd5b8062fdd58e1461023f57806301ffc9a7146102725780630e89341c146102a25780631269739d146102cf57806318160ddd146102f1575b600080fd5b34801561024b57600080fd5b5061025f61025a36600461248b565b610836565b6040519081526020015b60405180910390f35b34801561027e57600080fd5b5061029261028d3660046124cb565b61085e565b6040519015158152602001610269565b3480156102ae57600080fd5b506102c26102bd3660046124ef565b610869565b604051610269919061254e565b3480156102db57600080fd5b506102ef6102ea366004612571565b6108fd565b005b3480156102fd57600080fd5b5060045461025f565b34801561031257600080fd5b5061025f6103213660046124ef565b60009081526005602052604090206001015490565b34801561034257600080fd5b506102ef6103513660046126ec565b610919565b34801561036257600080fd5b506102ef610371366004612796565b610985565b34801561038257600080fd5b506102ef610391366004612796565b6109aa565b3480156103a257600080fd5b506102ef6109e2565b3480156103b757600080fd5b506103cb6103c63660046127c2565b610a17565b60405161026991906128bd565b3480156103e457600080fd5b506102926103f33660046124ef565b600090815260036020526040902054151590565b34801561041357600080fd5b506102ef61042236600461248b565b610aec565b34801561043357600080fd5b506102ef6104423660046128d0565b610c29565b34801561045357600080fd5b5060065460ff16610292565b34801561046b57600080fd5b5060095461047f906001600160a01b031681565b6040516001600160a01b039091168152602001610269565b6102ef6104a53660046128eb565b610cf9565b3480156104b657600080fd5b5061025f6104c536600461248b565b6001600160a01b03919091166000908152600b60209081526040808320938352929052205490565b3480156104f957600080fd5b506102ef611068565b34801561050e57600080fd5b506102ef61051d366004612931565b61109a565b34801561052e57600080fd5b506102ef61053d366004612953565b61116e565b34801561054e57600080fd5b506102ef61055d3660046128d0565b61130a565b34801561056e57600080fd5b5061029261057d366004612796565b611353565b34801561058e57600080fd5b5061025f600081565b3480156105a357600080fd5b506102ef6105b236600461297f565b61137e565b3480156105c357600080fd5b506102ef6105d23660046129a9565b611389565b3480156105e357600080fd5b506102ef6105f23660046129dc565b6114d5565b34801561060357600080fd5b5061025f6106123660046124ef565b60009081526003602052604090205490565b34801561063057600080fd5b5061065b61063f3660046124ef565b600c602052600090815260409020805460019091015460ff1682565b60408051928352901515602083015201610269565b34801561067c57600080fd5b5061025f600080516020612d1d83398151915281565b34801561069e57600080fd5b5061025f7fe1dcbdb91df27212a29bc27177c840cf2f819ecf2187432e1fac86c2dd5dfca981565b3480156106d257600080fd5b506102ef6106e1366004612796565b611691565b3480156106f257600080fd5b5061025f61070136600461248b565b600b60209081526000928352604080842090915290825290205481565b34801561072a57600080fd5b5061025f7f65d7a28e3265b37a6474929f336521b332c1681b933f6cb9f3376673440d862a81565b34801561075e57600080fd5b5061029261076d366004612a15565b6116b6565b34801561077e57600080fd5b5061025f60085481565b6102ef610796366004612931565b6116e4565b3480156107a757600080fd5b5061025f6107b636600461248b565b6001600160a01b03919091166000908152600a60209081526040808320938352929052205490565b3480156107ea57600080fd5b506102ef6107f9366004612a3f565b61186b565b34801561080a57600080fd5b5061025f61081936600461248b565b600a60209081526000928352604080842090915290825290205481565b6000818152602081815260408083206001600160a01b03861684529091529020545b92915050565b6000610858826118ca565b60606002805461087890612aa4565b80601f01602080910402602001604051908101604052809291908181526020018280546108a490612aa4565b80156108f15780601f106108c6576101008083540402835291602001916108f1565b820191906000526020600020905b8154815290600101906020018083116108d457829003601f168201915b50505050509050919050565b6000610908816118ef565b6109138484846118f9565b50505050565b336001600160a01b038616811480159061093a575061093886826116b6565b155b156109705760405163711bec9160e11b81526001600160a01b038083166004830152871660248201526044015b60405180910390fd5b61097d86868686866119a0565b505050505050565b6000828152600560205260409020600101546109a0816118ef565b6109138383611a00565b6001600160a01b03811633146109d35760405163334bd91960e11b815260040160405180910390fd5b6109dd8282611a94565b505050565b7f65d7a28e3265b37a6474929f336521b332c1681b933f6cb9f3376673440d862a610a0c816118ef565b610a14611b01565b50565b60608151835114610a485781518351604051635b05999160e01b815260048101929092526024820152604401610967565b6000835167ffffffffffffffff811115610a6457610a646125a6565b604051908082528060200260200182016040528015610a8d578160200160208202803683370190505b50905060005b8451811015610ae457602080820286010151610ab790602080840287010151610836565b828281518110610ac957610ac9612ade565b6020908102919091010152610add81612b0a565b9050610a93565b509392505050565b6000610af7816118ef565b6001600160a01b038316610b1d5760405162461bcd60e51b815260040161096790612b23565b60008211610b3d5760405162461bcd60e51b815260040161096790612b47565b6000836001600160a01b03168360405160006040518083038185875af1925050503d8060008114610b8a576040519150601f19603f3d011682016040523d82523d6000602084013e610b8f565b606091505b5050905080610be05760405162461bcd60e51b815260206004820152601860248201527f7472656173757279207472616e73666572206661696c656400000000000000006044820152606401610967565b836001600160a01b03167ff84323ccb2310f2098e2b734d23768efa04c342681f9c5a223b6239165463fe984604051610c1b91815260200190565b60405180910390a250505050565b6000610c34816118ef565b6001600160a01b038216610c5a5760405162461bcd60e51b815260040161096790612b6f565b60015b6008548111610ce0576001600160a01b0383166000908152600b6020908152604080832084845290915290205415610cce5760405162461bcd60e51b815260206004820152601460248201527319585c9b9a5b99dcc81b9bdd0818db19585c995960621b6044820152606401610967565b80610cd881612b0a565b915050610c5d565b506109dd600080516020612d1d83398151915283611a94565b7fe1dcbdb91df27212a29bc27177c840cf2f819ecf2187432e1fac86c2dd5dfca9610d23816118ef565b610d2b611b53565b610d33611b79565b6001600160a01b038216610d595760405162461bcd60e51b815260040161096790612b23565b846001600160a01b0316826001600160a01b031614610db05760405162461bcd60e51b81526020600482015260136024820152723a379036bab9ba1031329039ba3932b0b6b2b960691b6044820152606401610967565b610dc8600080516020612d1d83398151915286611353565b610e0b5760405162461bcd60e51b81526020600482015260146024820152731cdd1c99585b595c881b9bdd08185b1b1bddd95960621b6044820152606401610967565b610e1484611ba3565b610e305760405162461bcd60e51b815260040161096790612b99565b60008311610e505760405162461bcd60e51b815260040161096790612b47565b6001600160a01b0385166000908152600b6020908152604080832087845290915290205483811015610ebc5760405162461bcd60e51b8152602060048201526015602482015274696e73756666696369656e74206561726e696e677360581b6044820152606401610967565b6000858152600c602090815260408083208151808301909252805480835260019091015460ff161515928201929092529190610ef9908790612bc3565b9050803414610f3a5760405162461bcd60e51b815260206004820152600d60248201526c696e76616c69642076616c756560981b6044820152606401610967565b610f448684612bda565b6001600160a01b038981166000908152600b602090815260408083208c84529091528082209390935591519087169083908381818185875af1925050503d8060008114610fad576040519150601f19603f3d011682016040523d82523d6000602084013e610fb2565b606091505b5050905080610ffc5760405162461bcd60e51b81526020600482015260166024820152751b985d1a5d99481d1c985b9cd9995c8819985a5b195960521b6044820152606401610967565b87866001600160a01b03168a6001600160a01b03167f3cae9923fd3c2f468aa25a8ef687923e37f957459557c0380fd06526c0b8cdbc8a8660405161104b929190918252602082015260400190565b60405180910390a4505050506110616001600755565b5050505050565b7f65d7a28e3265b37a6474929f336521b332c1681b933f6cb9f3376673440d862a611092816118ef565b610a14611bba565b6110a2611b53565b6110aa611b79565b6110b382611ba3565b6110cf5760405162461bcd60e51b815260040161096790612b99565b600081116110ef5760405162461bcd60e51b815260040161096790612b47565b6110fa338383611bf7565b336000908152600a6020908152604080832085845290915281208054839290611124908490612bed565b9091555050604051818152829033907f968ce3792951837b197b861c14107372d36a66a7f81bf024e406f6cb928f61419060200160405180910390a361116a6001600755565b5050565b611176611b53565b61117e611b79565b6001600160a01b0381166111a45760405162461bcd60e51b815260040161096790612b23565b6001600160a01b03811633146111f05760405162461bcd60e51b81526020600482015260116024820152703a379036bab9ba1031329039b2b73232b960791b6044820152606401610967565b6111f983611ba3565b6112155760405162461bcd60e51b815260040161096790612b99565b600082116112355760405162461bcd60e51b815260040161096790612b47565b336000908152600a60209081526040808320868452909152902054828110156112705760405162461bcd60e51b815260040161096790612c00565b61127a8382612bda565b336000908152600a60209081526040808320888452825280832093909355825190810190925281526112b190839086908690611c5f565b83826001600160a01b0316336001600160a01b03167f19b500572e111e1efaa6d79e923346af4412022ba47520af0af63701618fa738866040516112f791815260200190565b60405180910390a4506109dd6001600755565b6000611315816118ef565b6001600160a01b03821661133b5760405162461bcd60e51b815260040161096790612b6f565b6109dd600080516020612d1d83398151915283611a00565b60009182526005602090815260408084206001600160a01b0393909316845291905290205460ff1690565b61116a338383611cbc565b611391611b53565b611399611b79565b6001600160a01b0383166113bf5760405162461bcd60e51b815260040161096790612b23565b6113c882611ba3565b6113e45760405162461bcd60e51b815260040161096790612b99565b600081116114045760405162461bcd60e51b815260040161096790612b47565b336000908152600a602090815260408083208584529091529020548181101561143f5760405162461bcd60e51b815260040161096790612c00565b6114498282612bda565b336000908152600a602081815260408084208885528252808420949094556001600160a01b038816835290815282822086835290529081208054849290611491908490612bed565b909155505060405182815283906001600160a01b0386169033907ffc155943a4837f932d2628406ce5e8f3f42dd6ab031108a2fcec0c68d94005ee906020016112f7565b6114dd611b53565b6114e5611b79565b6001600160a01b03841661150b5760405162461bcd60e51b815260040161096790612b6f565b611523600080516020612d1d83398151915285611353565b6115665760405162461bcd60e51b81526020600482015260146024820152731cdd1c99585b595c881b9bdd08185b1b1bddd95960621b6044820152606401610967565b61156f83611ba3565b61158b5760405162461bcd60e51b815260040161096790612b99565b600082116115ab5760405162461bcd60e51b815260040161096790612b47565b336000908152600a60209081526040808320868452909152902054828110156115e65760405162461bcd60e51b815260040161096790612c00565b6115f08382612bda565b336000908152600a602090815260408083208884528252808320939093556001600160a01b0388168252600b815282822087835290529081208054859290611639908490612bed565b90915550506040805184815260208101849052859133916001600160a01b038916917ffc033c6ff7f5dc4be4f754d2c94896e114298d0ca3fb3763c95fbaae9fead52e910160405180910390a4506109136001600755565b6000828152600560205260409020600101546116ac816118ef565b6109138383611a94565b6001600160a01b03918216600090815260016020908152604080832093909416825291909152205460ff1690565b6116ec611b53565b6116f4611b79565b6116fd82611ba3565b6117195760405162461bcd60e51b815260040161096790612b99565b600081116117395760405162461bcd60e51b815260040161096790612b47565b6000828152600c60209081526040918290208251808401909352805483526001015460ff1615159082018190526117a25760405162461bcd60e51b815260206004820152600d60248201526c19da599d08191a5cd8589b1959609a1b6044820152606401610967565b80516000906117b2908490612bc3565b90508034146117f35760405162461bcd60e51b815260206004820152600d60248201526c696e76616c69642076616c756560981b6044820152606401610967565b336000908152600a602090815260408083208784529091528120805485929061181d908490612bed565b90915550506040805184815260208101839052859133917f05221de8f0fadb9ce76481fd23a254aaa7658e665f2e832776a4e15ad95084a8910160405180910390a3505061116a6001600755565b336001600160a01b038616811480159061188c575061188a86826116b6565b155b156118bd5760405163711bec9160e11b81526001600160a01b03808316600483015287166024820152604401610967565b61097d8686868686611d52565b60006001600160e01b03198216637965db0b60e01b1480610858575061085882611de0565b610a148133611e30565b6001831015801561190c57506008548311155b6119285760405162461bcd60e51b815260040161096790612b99565b60408051808201825283815282151560208083018281526000888152600c835285902093518455516001909301805460ff19169315159390931790925582518581529182015284917f6f203b90fe004c1846d827a25235b6142ea96fdd5e773c5b507b419cf00dbfba910160405180910390a2505050565b6001600160a01b0384166119ca57604051632bfa23e760e11b815260006004820152602401610967565b6001600160a01b0385166119f357604051626a0d4560e21b815260006004820152602401610967565b6110618585858585611e69565b6000611a0c8383611353565b611a8c5760008381526005602090815260408083206001600160a01b03861684529091529020805460ff19166001179055611a443390565b6001600160a01b0316826001600160a01b0316847f2f8788117e7eff1d82e926ec794901d17c78024a50270940304540a733656f0d60405160405180910390a4506001610858565b506000610858565b6000611aa08383611353565b15611a8c5760008381526005602090815260408083206001600160a01b0386168085529252808320805460ff1916905551339286917ff6391f5c32d9c69d2a47ea670b442974b53935d1edc7fd64eb21e047a839171b9190a4506001610858565b611b09611ebc565b6006805460ff191690557f5db9ee0a495bf2e6ff9c91a7834c1ba4fdd244a5e8aa4e537bd38aeae4b073aa335b6040516001600160a01b03909116815260200160405180910390a1565b60065460ff1615611b775760405163d93c066560e01b815260040160405180910390fd5b565b600260075403611b9c57604051633ee5aeb560e01b815260040160405180910390fd5b6002600755565b600060018210158015610858575050600854101590565b611bc2611b53565b6006805460ff191660011790557f62e78cea01bee320cd4e420270b5ea74000d11b0c9f74754ebdbfc544b05a258611b363390565b6001600160a01b038316611c2057604051626a0d4560e21b815260006004820152602401610967565b604080516001808252602082018590528183019081526060820184905260a0820190925260006080820181815291929161106191879185908590611e69565b6001600160a01b038416611c8957604051632bfa23e760e11b815260006004820152602401610967565b6040805160018082526020820186905281830190815260608201859052608082019092529061097d600087848487611e69565b6001600160a01b038216611ce55760405162ced3e160e81b815260006004820152602401610967565b6001600160a01b03838116600081815260016020908152604080832094871680845294825291829020805460ff191686151590811790915591519182527f17307eab39ab6107e8899845ad3d59bd9653f200f220920489ca2b5937696c31910160405180910390a3505050565b6001600160a01b038416611d7c57604051632bfa23e760e11b815260006004820152602401610967565b6001600160a01b038516611da557604051626a0d4560e21b815260006004820152602401610967565b60408051600180825260208201869052818301908152606082018590526080820190925290611dd78787848487611e69565b50505050505050565b60006001600160e01b03198216636cdb3d1360e11b1480611e1157506001600160e01b031982166303a24d0760e21b145b8061085857506301ffc9a760e01b6001600160e01b0319831614610858565b611e3a8282611353565b61116a5760405163e2517d3f60e01b81526001600160a01b038216600482015260248101839052604401610967565b611e7585858585611edf565b6001600160a01b038416156110615782513390600103611eae5760208481015190840151611ea7838989858589611eeb565b505061097d565b61097d81878787878761200f565b60065460ff16611b7757604051638dfc202b60e01b815260040160405180910390fd5b610913848484846120f8565b6001600160a01b0384163b1561097d5760405163f23a6e6160e01b81526001600160a01b0385169063f23a6e6190611f2f9089908990889088908890600401612c2e565b6020604051808303816000875af1925050508015611f6a575060408051601f3d908101601f19168201909252611f6791810190612c73565b60015b611fd3573d808015611f98576040519150601f19603f3d011682016040523d82523d6000602084013e611f9d565b606091505b508051600003611fcb57604051632bfa23e760e11b81526001600160a01b0386166004820152602401610967565b805181602001fd5b6001600160e01b0319811663f23a6e6160e01b14611dd757604051632bfa23e760e11b81526001600160a01b0386166004820152602401610967565b6001600160a01b0384163b1561097d5760405163bc197c8160e01b81526001600160a01b0385169063bc197c81906120539089908990889088908890600401612c90565b6020604051808303816000875af192505050801561208e575060408051601f3d908101601f1916820190925261208b91810190612c73565b60015b6120bc573d808015611f98576040519150601f19603f3d011682016040523d82523d6000602084013e611f9d565b6001600160e01b0319811663bc197c8160e01b14611dd757604051632bfa23e760e11b81526001600160a01b0386166004820152602401610967565b61210484848484612252565b6001600160a01b0384166121b7576000805b835181101561219d57600083828151811061213357612133612ade565b60200260200101519050806003600087858151811061215457612154612ade565b6020026020010151815260200190815260200160002060008282546121799190612bed565b9091555061218990508184612bed565b9250508061219690612b0a565b9050612116565b5080600460008282546121b09190612bed565b9091555050505b6001600160a01b038316610913576000805b83518110156122415760008382815181106121e6576121e6612ade565b60200260200101519050806003600087858151811061220757612207612ade565b60200260200101518152602001908152602001600020600082825403925050819055508083019250508061223a90612b0a565b90506121c9565b506004805491909103905550505050565b80518251146122815781518151604051635b05999160e01b815260048101929092526024820152604401610967565b3360005b8351811015612390576020818102858101820151908501909101516001600160a01b03881615612338576000828152602081815260408083206001600160a01b038c16845290915290205481811015612311576040516303dee4c560e01b81526001600160a01b038a166004820152602481018290526044810183905260648101849052608401610967565b6000838152602081815260408083206001600160a01b038d16845290915290209082900390555b6001600160a01b0387161561237d576000828152602081815260408083206001600160a01b038b16845290915281208054839290612377908490612bed565b90915550505b50508061238990612b0a565b9050612285565b5082516001036124115760208301516000906020840151909150856001600160a01b0316876001600160a01b0316846001600160a01b03167fc3d58168c5ae7397731d063d5bbf3d657854427343f4c083240f7aacaa2d0f628585604051612402929190918252602082015260400190565b60405180910390a45050611061565b836001600160a01b0316856001600160a01b0316826001600160a01b03167f4a39dc06d4c0dbc64b70af90fd698a233a518aa5d07e595d983b8c0526c8f7fb8686604051612460929190612cee565b60405180910390a45050505050565b80356001600160a01b038116811461248657600080fd5b919050565b6000806040838503121561249e57600080fd5b6124a78361246f565b946020939093013593505050565b6001600160e01b031981168114610a1457600080fd5b6000602082840312156124dd57600080fd5b81356124e8816124b5565b9392505050565b60006020828403121561250157600080fd5b5035919050565b6000815180845260005b8181101561252e57602081850181015186830182015201612512565b506000602082860101526020601f19601f83011685010191505092915050565b6020815260006124e86020830184612508565b8035801515811461248657600080fd5b60008060006060848603121561258657600080fd5b833592506020840135915061259d60408501612561565b90509250925092565b634e487b7160e01b600052604160045260246000fd5b604051601f8201601f1916810167ffffffffffffffff811182821017156125e5576125e56125a6565b604052919050565b600067ffffffffffffffff821115612607576126076125a6565b5060051b60200190565b600082601f83011261262257600080fd5b81356020612637612632836125ed565b6125bc565b82815260059290921b8401810191818101908684111561265657600080fd5b8286015b84811015612671578035835291830191830161265a565b509695505050505050565b600082601f83011261268d57600080fd5b813567ffffffffffffffff8111156126a7576126a76125a6565b6126ba601f8201601f19166020016125bc565b8181528460208386010111156126cf57600080fd5b816020850160208301376000918101602001919091529392505050565b600080600080600060a0868803121561270457600080fd5b61270d8661246f565b945061271b6020870161246f565b9350604086013567ffffffffffffffff8082111561273857600080fd5b61274489838a01612611565b9450606088013591508082111561275a57600080fd5b61276689838a01612611565b9350608088013591508082111561277c57600080fd5b506127898882890161267c565b9150509295509295909350565b600080604083850312156127a957600080fd5b823591506127b96020840161246f565b90509250929050565b600080604083850312156127d557600080fd5b823567ffffffffffffffff808211156127ed57600080fd5b818501915085601f83011261280157600080fd5b81356020612811612632836125ed565b82815260059290921b8401810191818101908984111561283057600080fd5b948201945b83861015612855576128468661246f565b82529482019490820190612835565b9650508601359250508082111561286b57600080fd5b5061287885828601612611565b9150509250929050565b600081518084526020808501945080840160005b838110156128b257815187529582019590820190600101612896565b509495945050505050565b6020815260006124e86020830184612882565b6000602082840312156128e257600080fd5b6124e88261246f565b6000806000806080858703121561290157600080fd5b61290a8561246f565b935060208501359250604085013591506129266060860161246f565b905092959194509250565b6000806040838503121561294457600080fd5b50508035926020909101359150565b60008060006060848603121561296857600080fd5b833592506020840135915061259d6040850161246f565b6000806040838503121561299257600080fd5b61299b8361246f565b91506127b960208401612561565b6000806000606084860312156129be57600080fd5b6129c78461246f565b95602085013595506040909401359392505050565b600080600080608085870312156129f257600080fd5b6129fb8561246f565b966020860135965060408601359560600135945092505050565b60008060408385031215612a2857600080fd5b612a318361246f565b91506127b96020840161246f565b600080600080600060a08688031215612a5757600080fd5b612a608661246f565b9450612a6e6020870161246f565b93506040860135925060608601359150608086013567ffffffffffffffff811115612a9857600080fd5b6127898882890161267c565b600181811c90821680612ab857607f821691505b602082108103612ad857634e487b7160e01b600052602260045260246000fd5b50919050565b634e487b7160e01b600052603260045260246000fd5b634e487b7160e01b600052601160045260246000fd5b600060018201612b1c57612b1c612af4565b5060010190565b6020808252600a9082015269696e76616c696420746f60b01b604082015260600190565b6020808252600e908201526d1a5b9d985b1a5908185b5bdd5b9d60921b604082015260600190565b60208082526010908201526f34b73b30b634b21039ba3932b0b6b2b960811b604082015260600190565b60208082526010908201526f1d5b9cdd5c1c1bdc9d19590819da599d60821b604082015260600190565b808202811582820484141761085857610858612af4565b8181038181111561085857610858612af4565b8082018082111561085857610858612af4565b602080825260149082015273696e73756666696369656e74206372656469747360601b604082015260600190565b6001600160a01b03868116825285166020820152604081018490526060810183905260a060808201819052600090612c6890830184612508565b979650505050505050565b600060208284031215612c8557600080fd5b81516124e8816124b5565b6001600160a01b0386811682528516602082015260a060408201819052600090612cbc90830186612882565b8281036060840152612cce8186612882565b90508281036080840152612ce28185612508565b98975050505050505050565b604081526000612d016040830185612882565b8281036020840152612d138185612882565b9594505050505056fe41d12fe3b2ffe2aea01a3e08ec191d0142900efe396c6cd50b857af5b6f1bdaea2646970667358221220342fa7a817ddb5394aac2a184aca197a3dbda7eb772a69f9d0408544a7cabd4664736f6c63430008140033",
  "devdoc": {
    "errors": {
      "AccessControlBadConfirmation()": [
        {
          "details": "The caller of a function is not the expected one. NOTE: Don't confuse with {AccessControlUnauthorizedAccount}."
        }
      ],
      "AccessControlUnauthorizedAccount(address,bytes32)": [
        {
          "details": "The `account` is missing a role."
        }
      ],
      "ERC1155InsufficientBalance(address,uint256,uint256,uint256)": [
        {
          "details": "Indicates an error related to the current `balance` of a `sender`. Used in transfers.",
          "params": {
            "balance": "Current balance for the interacting account.",
            "needed": "Minimum amount required to perform a transfer.",
            "sender": "Address whose tokens are being transferred.",
            "tokenId": "Identifier number of a token."
          }
        }
      ],
      "ERC1155InvalidApprover(address)": [
        {
          "details": "Indicates a failure with the `approver` of a token to be approved. Used in approvals.",
          "params": {
            "approver": "Address initiating an approval operation."
          }
        }
      ],
      "ERC1155InvalidArrayLength(uint256,uint256)": [
        {
          "details": "Indicates an array length mismatch between ids and values in a safeBatchTransferFrom operation. Used in batch transfers.",
          "params": {
            "idsLength": "Length of the array of token identifiers",
            "valuesLength": "Length of the array of token amounts"
          }
        }
      ],
      "ERC1155InvalidOperator(address)": [
        {
          "details": "Indicates a failure with the `operator` to be approved. Used in approvals.",
          "params": {
            "operator": "Address that may be allowed to operate on tokens without being their owner."
          }
        }
      ],
      "ERC1155InvalidReceiver(address)": [
        {
          "details": "Indicates a failure with the token `receiver`. Used in transfers.",
          "params": {
            "receiver": "Address to which tokens are being transferred."
          }
        }
      ],
      "ERC1155InvalidSender(address)": [
        {
          "details": "Indicates a failure with the token `sender`. Used in transfers.",
          "params": {
            "sender": "Address whose tokens are being transferred."
          }
        }
      ],
      "ERC1155MissingApprovalForAll(address,address)": [
        {
          "details": "Indicates a failure with the `operator`s approval. Used in transfers.",
          "params": {
            "operator": "Address that may be allowed to operate on tokens without being their owner.",
            "owner": "Address of the current owner of a token."
          }
        }
      ],
      "EnforcedPause()": [
        {
          "details": "The operation failed because the contract is paused."
        }
      ],
      "ExpectedPause()": [
        {
          "details": "The operation failed because the contract is not paused."
        }
      ],
      "ReentrancyGuardReentrantCall()": [
        {
          "details": "Unauthorized reentrant call."
        }
      ]
    },
    "events": {
      "ApprovalForAll(address,address,bool)": {
        "details": "Emitted when `account` grants or revokes permission to `operator` to transfer their tokens, according to `approved`."
      },
      "Paused(address)": {
        "details": "Emitted when the pause is triggered by `account`."
      },
      "RoleAdminChanged(bytes32,bytes32,bytes32)": {
        "details": "Emitted when `newAdminRole` is set as ``role``'s admin role, replacing `previousAdminRole` `DEFAULT_ADMIN_ROLE` is the starting admin for all roles, despite {RoleAdminChanged} not being emitted signaling this."
      },
      "RoleGranted(bytes32,address,address)": {
        "details": "Emitted when `account` is granted `role`. `sender` is the account that originated the contract call, an admin role bearer except when using {AccessControl-_setupRole}."
      },
      "RoleRevoked(bytes32,address,address)": {
        "details": "Emitted when `account` is revoked `role`. `sender` is the account that originated the contract call:   - if using `revokeRole`, it is the admin role bearer   - if using `renounceRole`, it is the role bearer (i.e. `account`)"
      },
      "TransferBatch(address,address,address,uint256[],uint256[])": {
        "details": "Equivalent to multiple {TransferSingle} events, where `operator`, `from` and `to` are the same for all transfers."
      },
      "TransferSingle(address,address,address,uint256,uint256)": {
        "details": "Emitted when `value` amount of tokens of type `id` are transferred from `from` to `to` by `operator`."
      },
      "URI(string,uint256)": {
        "details": "Emitted when the URI for token type `id` changes to `value`, if it is a non-programmatic URI. If an {URI} event was emitted for `id`, the standard https://eips.ethereum.org/EIPS/eip-1155#metadata-extensions[guarantees] that `value` will equal the value returned by {IERC1155MetadataURI-uri}."
      },
      "Unpaused(address)": {
        "details": "Emitted when the pause is lifted by `account`."
      }
    },
    "kind": "dev",
    "methods": {
      "balanceOf(address,uint256)": {
        "details": "See {IERC1155-balanceOf}."
      },
      "balanceOfBatch(address[],uint256[])": {
        "details": "See {IERC1155-balanceOfBatch}. Requirements: - `accounts` and `ids` must have the same length."
      },
      "exists(uint256)": {
        "details": "Indicates whether any token exist with a given id, or not."
      },
      "getRoleAdmin(bytes32)": {
        "details": "Returns the admin role that controls `role`. See {grantRole} and {revokeRole}. To change a role's admin, use {_setRoleAdmin}."
      },
      "grantRole(bytes32,address)": {
        "details": "Grants `role` to `account`. If `account` had not been already granted `role`, emits a {RoleGranted} event. Requirements: - the caller must have ``role``'s admin role. May emit a {RoleGranted} event."
      },
      "hasRole(bytes32,address)": {
        "details": "Returns `true` if `account` has been granted `role`."
      },
      "isApprovedForAll(address,address)": {
        "details": "See {IERC1155-isApprovedForAll}."
      },
      "paused()": {
        "details": "Returns true if the contract is paused, and false otherwise."
      },
      "renounceRole(bytes32,address)": {
        "details": "Revokes `role` from the calling account. Roles are often managed via {grantRole} and {revokeRole}: this function's purpose is to provide a mechanism for accounts to lose their privileges if they are compromised (such as when a trusted device is misplaced). If the calling account had been revoked `role`, emits a {RoleRevoked} event. Requirements: - the caller must be `callerConfirmation`. May emit a {RoleRevoked} event."
      },
      "revokeRole(bytes32,address)": {
        "details": "Revokes `role` from `account`. If `account` had been granted `role`, emits a {RoleRevoked} event. Requirements: - the caller must have ``role``'s admin role. May emit a {RoleRevoked} event."
      },
      "safeBatchTransferFrom(address,address,uint256[],uint256[],bytes)": {
        "details": "See {IERC1155-safeBatchTransferFrom}."
      },
      "safeTransferFrom(address,address,uint256,uint256,bytes)": {
        "details": "See {IERC1155-safeTransferFrom}."
      },
      "setApprovalForAll(address,bool)": {
        "details": "See {IERC1155-setApprovalForAll}."
      },
      "totalSupply()": {
        "details": "Total value of tokens."
      },
      "totalSupply(uint256)": {
        "details": "Total value of tokens in with a given id."
      },
      "uri(uint256)": {
        "details": "See {IERC1155MetadataURI-uri}. This implementation returns the same URI for *all* token types. It relies on the token type ID substitution mechanism https://eips.ethereum.org/EIPS/eip-1155#metadata[defined in the EIP]. Clients calling this function must replace the `\\{id\\}` substring with the actual token type ID."
      }
    },
    "version": 1
  },
  "userdoc": {
    "kind": "user",
    "methods": {},
    "version": 1
  },
  "storageLayout": {
    "storage": [
      {
        "astId": 557,
        "contract": "contracts/GiftCredits.sol:GiftCredits1155",
        "label": "_balances",
        "offset": 0,
        "slot": "0",
        "type": "t_mapping(t_uint256,t_mapping(t_address,t_uint256))"
      },
      {
        "astId": 563,
        "contract": "contracts/GiftCredits.sol:GiftCredits1155",
        "label": "_operatorApprovals",
        "offset": 0,
        "slot": "1",
        "type": "t_mapping(t_address,t_mapping(t_address,t_bool))"
      },
      {
        "astId": 565,
        "contract": "contracts/GiftCredits.sol:GiftCredits1155",
        "label": "_uri",
        "offset": 0,
        "slot": "2",
        "type": "t_string_storage"
      },
      {
        "astId": 1742,
        "contract": "contracts/GiftCredits.sol:GiftCredits1155",
        "label": "_totalSupply",
        "offset": 0,
        "slot": "3",
        "type": "t_mapping(t_uint256,t_uint256)"
      },
      {
        "astId": 1744,
        "contract": "contracts/GiftCredits.sol:GiftCredits1155",
        "label": "_totalSupplyAll",
        "offset": 0,
        "slot": "4",
        "type": "t_uint256"
      },
      {
        "astId": 26,
        "contract": "contracts/GiftCredits.sol:GiftCredits1155",
        "label": "_roles",
        "offset": 0,
        "slot": "5",
        "type": "t_mapping(t_bytes32,t_struct(RoleData)21_storage)"
      },
      {
        "astId": 2141,
        "contract": "contracts/GiftCredits.sol:GiftCredits1155",
        "label": "_paused",
        "offset": 0,
        "slot": "6",
        "type": "t_bool"
      },
      {
        "astId": 2260,
        "contract": "contracts/GiftCredits.sol:GiftCredits1155",
        "label": "_status",
        "offset": 0,
        "slot": "7",
        "type": "t_uint256"
      },
      {
        "astId": 3552,
        "contract": "contracts/GiftCredits.sol:GiftCredits1155",
        "label": "giftCount",
        "offset": 0,
        "slot": "8",
        "type": "t_uint256"
      },
      {
        "astId": 3559,
        "contract": "contracts/GiftCredits.sol:GiftCredits1155",
        "label": "treasury",
        "offset": 0,
        "slot": "9",
        "type": "t_address"
      },
      {
        "astId": 3565,
        "contract": "contracts/GiftCredits.sol:GiftCredits1155",
        "label": "credits",
        "offset": 0,
        "slot": "10",
        "type": "t_mapping(t_address,t_mapping(t_uint256,t_uint256))"
      },
      {
        "astId": 3571,
        "contract": "contracts/GiftCredits.sol:GiftCredits1155",
        "label": "earnings",
        "offset": 0,
        "slot": "11",
        "type": "t_mapping(t_address,t_mapping(t_uint256,t_uint256))"
      },
      {
        "astId": 3576,
        "contract": "contracts/GiftCredits.sol:GiftCredits1155",
        "label": "giftConfig",
        "offset": 0,
        "slot": "12",
        "type": "t_mapping(t_uint256,t_struct(GiftConfig)3557_storage)"
      }
    ],
    "types": {
      "t_address": {
        "encoding": "inplace",
        "label": "address",
        "numberOfBytes": "20"
      },
      "t_bool": {
        "encoding": "inplace",
        "label": "bool",
        "numberOfBytes": "1"
      },
      "t_bytes32": {
        "encoding": "inplace",
        "label": "bytes32",
        "numberOfBytes": "32"
      },
      "t_mapping(t_address,t_bool)": {
        "encoding": "mapping",
        "key": "t_address",
        "label": "mapping(address => bool)",
        "numberOfBytes": "32",
        "value": "t_bool"
      },
      "t_mapping(t_address,t_mapping(t_address,t_bool))": {
        "encoding": "mapping",
        "key": "t_address",
        "label": "mapping(address => mapping(address => bool))",
        "numberOfBytes": "32",
        "value": "t_mapping(t_address,t_bool)"
      },
      "t_mapping(t_address,t_mapping(t_uint256,t_uint256))": {
        "encoding": "mapping",
        "key": "t_address",
        "label": "mapping(address => mapping(uint256 => uint256))",
        "numberOfBytes": "32",
        "value": "t_mapping(t_uint256,t_uint256)"
      },
      "t_mapping(t_address,t_uint256)": {
        "encoding": "mapping",
        "key": "t_address",
        "label": "mapping(address => uint256)",
        "numberOfBytes": "32",
        "value": "t_uint256"
      },
      "t_mapping(t_bytes32,t_struct(RoleData)21_storage)": {
        "encoding": "mapping",
        "key": "t_bytes32",
        "label": "mapping(bytes32 => struct AccessControl.RoleData)",
        "numberOfBytes": "32",
        "value": "t_struct(RoleData)21_storage"
      },
      "t_mapping(t_uint256,t_mapping(t_address,t_uint256))": {
        "encoding": "mapping",
        "key": "t_uint256",
        "label": "mapping(uint256 => mapping(address => uint256))",
        "numberOfBytes": "32",
        "value": "t_mapping(t_address,t_uint256)"
      },
      "t_mapping(t_uint256,t_struct(GiftConfig)3557_storage)": {
        "encoding": "mapping",
        "key": "t_uint256",
        "label": "mapping(uint256 => struct GiftCredits1155.GiftConfig)",
        "numberOfBytes": "32",
        "value": "t_struct(GiftConfig)3557_storage"
      },
      "t_mapping(t_uint256,t_uint256)": {
        "encoding": "mapping",
        "key": "t_uint256",
        "label": "mapping(uint256 => uint256)",
        "numberOfBytes": "32",
        "value": "t_uint256"
      },
      "t_string_storage": {
        "encoding": "bytes",
        "label": "string",
        "numberOfBytes": "32"
      },
      "t_struct(GiftConfig)3557_storage": {
        "encoding": "inplace",
        "label": "struct GiftCredits1155.GiftConfig",
        "members": [
          {
            "astId": 3554,
            "contract": "contracts/GiftCredits.sol:GiftCredits1155",
            "label": "priceNative",
            "offset": 0,
            "slot": "0",
            "type": "t_uint256"
          },
          {
            "astId": 3556,
            "contract": "contracts/GiftCredits.sol:GiftCredits1155",
            "label": "enabled",
            "offset": 0,
            "slot": "1",
            "type": "t_bool"
          }
        ],
        "numberOfBytes": "64"
      },
      "t_struct(RoleData)21_storage": {
        "encoding": "inplace",
        "label": "struct AccessControl.RoleData",
        "members": [
          {
            "astId": 18,
            "contract": "contracts/GiftCredits.sol:GiftCredits1155",
            "label": "hasRole",
            "offset": 0,
            "slot": "0",
            "type": "t_mapping(t_address,t_bool)"
          },
          {
            "astId": 20,
            "contract": "contracts/GiftCredits.sol:GiftCredits1155",
            "label": "adminRole",
            "offset": 0,
            "slot": "1",
            "type": "t_bytes32"
          }
        ],
        "numberOfBytes": "64"
      },
      "t_uint256": {
        "encoding": "inplace",
        "label": "uint256",
        "numberOfBytes": "32"
      }
    }
  }
}